:10000000250064000A0C24001E0C0B09A304A20B9B
:1000100084016000A40284011F0E4307080A040043
:020020000008D6
:10030A00A4047C007D00930B6100C50C020001026D
:10031A00640F43078C0BBC024306BD021B023F005D
:10032A001A023E001F029D0043079D0B1E029C00FD
:10033A000307890B1902A305010AFF0C0600140C16
:10034A00A4043A007B00040C3900850B000C06005B
:10035A0068006700DB0C0600200C2600500C3A00EF
:10036A007B00060C3900850BDB0C0600040C26000A
:10037A00500C3A007B00080C3900850BEB0C060088
:10038A00100C2600500C3A007B000A0C3900850B31
:10039A00EB0C0600040C2600500C3A007B000C0CF7
:1003AA003900850BDE0C0600010C2600500C3A00C1
:1003BA007B000E0C3900850BDE0C0600200C260093
:1003CA00500C3A007B00100C3900850BEE0C06002D
:1003DA00010C2600500C3A007B00120C3900850BE8
:1003EA00EE0C0600100C2600500C3A007B00140C90
:1003FA003900850BAF0B18023800B8022200A3049B
:10040A00AB0BA304B90BA304C30BA304CD0BA30426
:10041A00D70BA304E10BA304EB0BA304F50BA30472
:02042A00FF0BC6
:021FFE00EA0FE8
:00000001FF
